:100000000C9472000C9493000C9493000C94930045
:100010000C9493000C9493000C9493000C94930014
:100020000C9493000C9493000C9493000C94930004
:100030000C9493000C9493000C9493000C949300F4
:100040000C9493000C9493000C9493000C949300E4
:100050000C9493000C9493000C9493000C949300D4
:100060000C9493000C94E7000C9493000C94930070
:100070000C9493000C9493000C9493000C949300B4
:100080000C9493000C9493000C9493000C949300A4
:100090000C9493000C9493000C9493000C94930094
:1000A0000C9493000C9493000C9493000C94930084
:1000B0000C9493000C9493000C9493000C94930074
:1000C0000C9493000C9493000C9493000C94930064
:1000D0000C9493000C9493000C9493000C94930054
:1000E0000C94930011241FBECFEFD1E2DEBFCDBF31
:1000F00000E00CBF12E0A0E0B2E0E6E0F6E000E0D5
:100100000BBF02C007900D92A030B107D9F712E0E3
:10011000A0E0B2E001C01D92A930B107E1F70E9452
:1001200034010C9401030C9400008FEF80930101C3
:100130001092020108958FEF84B915B808958FEFDA
:1001400081B912B8089581E0809302010895109258
:100150000201089585E082B908958AE082B9089580
:1001600089E082B9089586E082B9089588E082B96D
:10017000089582E082B9089512B808958FEF85B985
:10018000089515B80895E1ECF0E010821092C000D7
:10019000A2ECB0E086E08C939FE59093C4001092AF
:1001A000C50098E990838C9388E180830895E0EC02
:1001B000F0E0908195FFFDCF8093C6000895E0ECBC
:1001C000F0E080818823ECF78091C60008951F92AB
:1001D0000F920FB60F9211248F938091C6008093D7
:1001E00008028F910F900FBE0F901F90189510BAB4
:1001F00011BA08950E94F7000E94C3000E949F0058
:100200000E9495000E949B000895EAE7F0E01082AA
:1002100010927B0080E280937C0080E880BF86E8BB
:1002200080830895883018F098E090937B00877061
:10023000806280937C00EAE7F0E0808180648083C4
:10024000808184FFFDCF80917900EAE7F0E0908122
:100250009061908310927B000895F8940E94FA00B8
:100260000E940501789408950E942D010E94DF00EC
:10027000C82F81E00E9412018093040282E00E9454
:1002800012018093030283E00E9412018093020214
:10029000CE3679F1CF36A0F4C43609F453C1C53651
:1002A00038F4C13609F4EFC0C23609F0A7C11EC048
:1002B000CB3689F1CD3601F1C63609F09FC13FC179
:1002C000C53719F1C63750F4C23709F479C1C337BD
:1002D00009F417C1CF3609F091C111C0C93791F0A7
:1002E000CA37B1F0C73709F089C133C00E94BE00D8
:1002F000BDCF0E94C100BACF0E94A300B7CF0E9419
:10030000A700B4CF0E94B000B1CF0E94B300AECF1F
:100310000E94AA00ABCF0E94B00081E00E941201AF
:100320008093040282E00E9412018093030283E022
:100330000E9412018093020290910402983C68F797
:1003400090910302983C48F7883C38F70E94BC0023
:100350008DCF0E94AD0081E00E94120180930402C3
:1003600082E00E9412018093030283E00E94120146
:100370008093020290910402993CB8F0209103020C
:10038000283C98F4883C88F40E94B60080910402CE
:10039000883C08F780910302893CE8F280910202D0
:1003A000883CC8F60E94AD00D6CF983CC0F420919E
:1003B0000302283CA0F4893C90F00E94B90080918F
:1003C0000402883C40F680910302893C20F280912F
:1003D0000202883C08F0BFCF0E94AD00BCCF993C20
:1003E00060F020910302293C40F0893C30F00E94EB
:1003F000BC008FE60E94D70039CF983C48F420918A
:100400000302293C28F0883C18F40E94AD00A3CFD9
:10041000993CD0F020910302293CB0F0883CA0F434
:100420000E94B60080910402883C08F094CF80912D
:100430000302893C08F48FCF80910202883C08F0C7
:100440008ACF0E94AD0087CF983C08F084CF90916E
:100450000302993C08F47FCF893C08F47CCF0E94CA
:10046000B90080910402883C08F075CF80910302A6
:10047000893C08F470CF80910202883C08F06BCF71
:100480000E94AD0068CF0E94AD0081E00E94120181
:100490008093040282E00E9412018093030283E0B1
:1004A0000E9412018093020290910402983C68F726
:1004B000883C58F780910302883C38F70E94BC00C2
:1004C0000E94B00081E00E9412018093040282E049
:1004D0000E9412018093030283E00E941201809324
:1004E000020290910302993C68F390910402983CB7
:1004F00048F7883C38F70E94BC008FE60E94D7007E
:10050000B5CE0E94AA0081E00E94120180930402ED
:1005100082E00E9412018093030283E00E94120194
:100520008093020290910402993C68F3893C58F34D
:1005300080910302893C38F30E94BC0097CE0E9450
:10054000AD0094CE0E94AD0081E00E941201809324
:10055000040282E00E9412018093030283E00E9461
:1005600012018093020290910402983C68F7883C43
:1005700058F780910302883C38F70E94BC000E9423
:10058000B30081E00E9412018093040282E00E9485
:1005900012018093030283E00E9412018093020201
:1005A00090910302993C68F390910402983C48F7BB
:1005B000883C38F70E94BC008FE60E94D70056CED8
:1005C0000E94B30081E00E9412018093040282E045
:1005D0000E9412018093030283E00E941201809323
:1005E000020290910402983C68F790910302983CB3
:1005F00048F7883C38F70E94BC0038CE0E94BC0007
:0606000035CEF894FFCF97
:00000001FF
